:0300000002004EAD
:10004E0078FFE4F6D8FD907FA1E404F090200090B4
:10005E0020007F007E08E4F0A3DFFCDEFA758158F5
:03006E000200ACE1
:03004300020100B7
:1008C0001201100100000040BF0AED030400010204
:1008D000030109025A00010100C0320904000004AA
:1008E000FF00000007050202400000070504024067
:1008F0000000070582024000000705840240000056
:100900000904000105FF0000000705020240000085
:1009100007050402400000070581031000010705D8
:10092000820240000007058402400000040309041D
:100930001003440065005600610053007900730005
:1009400024034400650056006100530079007300E1
:1009500020005500530042002D00490032004300A2
:1009600049004F00120330003100320033003400E0
:080970003500360037000000DD
:1006FE00907FD6E04480F043870100000000002286
:10070E0074EF5291227400F58690FDA57C05A3E549
:06071E0082458370F92200
:10072400907FE3EEF0907FE4EFF075927F78E574CC
:1007340040C39D2212072490073F73E2E2E2E2E203
:10074400E2E2E2E2E2E2E2E2E2E2E2E2E2E2E2E285
:10075400E2E2E2E2E2E2E2E2E2E2E2E2E2E2E2E275
:10076400E2E2E2E2E2E2E2E2E2E2E2E2E2E2E2E265
:10077400E2E2E2E2E2E2E2E2E2E2E22212072490D0
:10078400078773F2F2F2F2F2F2F2F2F2F2F2F2F21A
:10079400F2F2F2F2F2F2F2F2F2F2F2F2F2F2F2F235
:1007A400F2F2F2F2F2F2F2F2F2F2F2F2F2F2F2F225
:1007B400F2F2F2F2F2F2F2F2F2F2F2F2F2F2F2F215
:0407C400F2F2F22239
:1016B800120F7C201903301A03121073120A0780C4
:0116C800F22F
:100EF800D21BE4907F93F0907F94F0907F95F0124E
:100F08001333121645C20D1214A3D2AF1210DFD23A
:100F180003D204121000C2AF907FDE7416F0907FE7
:100F2800DF7414F0907FDD741BF0E4907FC9F090BB
:040F38007FCDF02257
:1010DF007E247F6CC2077B087A007D007C3F120F55
:1010EF003C50217E097F64E4FD74022FFFE43EFE35
:1010FF00746C2DF582E43424F583E08F828E83F0B7
:04110F000DBD08E525
:0111130022B9
:100A0700301D031214D3E52660031213CD907FC85F
:100A1700E020E138907FB8E020E131907FC9E0FB2A
:100A2700E4FEEEC39B501B74C02EF582E4347DF5C3
:100A370083E0FF74002EF582E4347EF583EFF00E39
:100A470080E0E4907FC9F0907FB9EBF0907FCCE035
:100A570020E138907FBCE020E131907FCDE0FBE4DE
:100A6700FEEEC39B501B74C02EF582E4347CF583E5
:100A7700E0FF74002EF582E4347DF583EFF00E80FD
:0B0A8700E0E4907FCDF0907FBDEBF02D
:010A92002241
:02174900D322A9
:02174B00D322A7
:09120700C11DC11F012600C11E1A
:07173400EF25E02427F82255
:10133300C2A9C28C5389F0438901758AE0758CB1C7
:10134300E4FF121734E4F608F6742D2FF876010F34
:07135300BF03EFD28CD2A909
:01135A002270
:0E16E900742D2FF8E6B402047601D322C3223A
:10165A00C28C121734A60408A605742D2FF8E4F6D6
:03166A00D28C22FD
:03000B00020EB32F
:0D0EB300C0E0C0D075D000C000C004C00772
:100EC000C28C758AE0758CB1D28C7F031F742D2F74
:100ED000F8E6701612173408E61618700116148614
:0D0EE000044C7006742D2FF87602EF70DFC1
:0B0EED00D007D004D000D0D0D0E032FD
:10145500301E02B200907F98E054F7F52520000376
:09146500432508907F98E525F06D
:01146E00225B
:1014D300E52670127D08FC7F0112165A752601D28B
:0714E30000121455C21D2286
:1013CD007F011216E9501BE52614700E7D087C0076
:1013DD007F0112165A7526028003E4F526C200120B
:0313ED0014552272
:101630005391EF907FAB225391EF907FA92253916A
:05164000EF907FAA22DB
:0301000002126088
:10126000C0E0C083C082907FE8E020E70F907FEE6F
:10127000E07004A3E06005907FC5E4F0D219121677
:0B128000307401F0D082D083D0E03247
:0301040002166D73
:10166D00C0E0C083C0821216307402F0D082D083E5
:03167D00D0E03288
:030108000216805C
:10168000C0E0C083C0821216307404F0D082D083D0
:03169000D0E03275
:03010C0002157366
:10157300C0E0C083C082D21A1216307408F0D08241
:05158300D083D0E0322E
:030110000214EAEC
:1014EA00C0E0C083C0821216307410F0C21ED21D32
:0714FA00D082D083D0E03264
:03011400020042A4
:01004200328B
:0301180002004A98
:01004A003283
:03011C00020103DA
:0101030032C9
:030120000215883D
:10158800C0E0C083C0821216377402F0D21DD08228
:05159800D083D0E03219
:0301240002159D24
:10159D00C0E0C083C08212163E7402F0D21DD0820C
:0515AD00D083D0E03204
:030128000215B20B
:1015B200C0E0C083C0821216377404F0D21DD082FC
:0515C200D083D0E032EF
:03012C000215C7F2
:1015C700C0E0C083C08212163E7404F0D21DD082E0
:0515D700D083D0E032DA
:030130000215DCD9
:1015DC00C0E0C083C0821216377408F0D21DD082CE
:0515EC00D083D0E032C5
:030134000215F1C0
:1015F100C0E0C083C08212163E7408F0D21DD082B2
:05160100D083D0E032AF
:03013800021606A6
:10160600C0E0C083C0821216377410F0D21DD0829B
:05161600D083D0E0329A
:03013C0002161B8D
:10161B00C0E0C083C08212163E7410F0D21DD0827F
:05162B00D083D0E03285
:10128B00854482854383E0FCA3E0FDECFBED222546
:10129B00E024B4F582E4347FF58322907FB4E044FC
:0A12AB0001F022F45480C4540F2215
:100F7C00C21AC21BC21CC2199024747409F0A37447
:100F8C002CF0120EF8D2E843D820907FAFE0440149
:100F9C00F0907FAEE0441DF0907FAC7416F0907F23
:0D0FAC00AD7414F0D2AF1213F0E4F58E22F4
:10107300301907D21D120D05C219301A28C21A12CF
:1010830017495021C21EC2001214551206FE201B1E
:1010930007907FD6E020E7F312146F12174BD200AC
:0610A300121455D21E22BA
:100D0500907FE8E0F53BA3E0F53C75437F7544EA49
:100D150012128BF53DEBF53E75437F7544EC1212CF
:100D25008BF53FEBF5407E7F7FEE75437F7544EE97
:100D350012128BF541EBF542E53B546024E060254A
:100D450024E0601724E0601D24607016E53B30E761
:100D5500051203DC800F120A93800A120800400571
:0D0D650080001212A6907FB4E04402F0223C
:1003DC00E53C700281B924F8700281B624FE7002EB
:1003EC0081B32404600281F4E53D24FE60131460A3
:1003FC001D2402600281B17408907FD4F074C08017
:10040C00087408907FD4F074D2907FD5F022AF3E60
:10041C00E53E121147EF4E700281F48E308F318F12
:10042C00828E83E493F532D39542E4954140038563
:10043C004232E5326065E4FFFEE532C3944050047D
:10044C00AD3280027D40C3EF9DEE9400501FE5312C
:10045C002FF582E5303EF583E0FD74002FF582E444
:10046C00347FF583EDF00FBF00010E80CCE532C375
:10047C0094405004AF3280027F40907FB5EFF0E59E
:10048C0032C394405004AF3280027F40C3E5329FA8
:10049C00F532907FB4E030E29980F7E4907FB5F0CC
:1004AC00907FB4803D804102174202173BE53B240C
:1004BC007F60071460102402702CE4907F00F0A37E
:1004CC00F0907FB5801C907FECE01212AEFFE054F0
:1004DC00072F12129AE05401907F00F0E4A3F090E1
:0B04EC007FB57402F02280001212A6FF
:0104F70022E2
:100A9300E53C14601224FE604D24FA600724FE70C6
:100AA3007302000302170FE53B24FE600F2402705C
:100AB30066E53DFFBF0103C21B228058E53D70245C
:100AC300E53FFFFE1212AEFDEE5407FE2D12129A01
:100AD300E4F0EF5480131313541F2E907FD7F0E0EC
:100AE3004420F022802EE53B24FE60102402702770
:100AF300907FEAE0B40103D21B228018E53D701217
:100B0300E53FFF1212AEFEEF54072E12129A740144
:080B1300F02280001212A6225C
:1013F00075301B753140853182853083E0B4A50896
:101400007F091217230211A985318285308374A5C3
:01141000F0EB
:0114110022B8
:0300330002004682
:0400460053D8EF326A
:1011A900907FD6E054FBF0E04408F07FDC7E051226
:1011B9001501907FAB74FFF0907FA9F0907FAAF0A2
:0F11C9005391EF907FD6E054F7F0E04404F0220A
:101501008E328F33E5331533AE32700215324E60B1
:071511000512071380EE2212
:10146F00907FD6E030E712E04401F07F147E001247
:0A147F001501907FD6E054FEF02224
:10114700902474E0FCA3E0FD8D828C83740193648A
:1011570003701AAE071FEE7005AF05AE04228D822D
:101167008C83E4937A002DFDEA3CFC80DBE4FEFFF0
:011177002255
:04121000024A030685
:10097800E0F485498285488322E5492406F582E426
:100988003548F58322D203751000751101E4F5305E
:10099800F53122E5492531F582E5483530F583E022
:1009A80022F0E5312401FFE43530FEE5492FF582D8
:1009B800E5483EF583E022D3E5429440E5412285AF
:1009C800414C85424D907FE27441F0907F937430A2
:1009D800F02274032531F531E43530F53022C3E5D2
:1009E800319542E530954122E0907F00F0907FB547
:0F09F8007401F0D322E540902464F0750C0022C6
:0A170F00D21EE53E902440F0D322E4
:07173B009024401209F02286
:08000300E53E902441F0D322F8
:071742009024411209F0227E
:10080000C200D201E53B30E771121412400201BD73
:10081000E53C1213830831E2083AE30845F0084C3E
:10082000F10853F2085CFC0863FD086AFE0000084A
:100830006F1212DF9200C2018035AF40E540121600
:10084000F79200802A12111492008023120B1B923F
:1008500000801CC2021202959200801312135B9258
:1008600000800C1217199200800512003692003099
:10087000004B3001481214348043AF3C12103A5000
:100880003CE53C241D601524F3601D1460211460B8
:1008900025241070281212B592008021AF40E53E49
:1008A000FD12172C920080151211D89200800E12A2
:0F08B00004F892008007D2021202959200A20073
:0108BF002216
:1012B5001209C7E54D454C601F1213A9AF4E121414
:1012C500894001227A7E79C07E7E7FC0AD4E1207AD
:0A12D50038E4907FC5F080DBD322DF
:1012DF001209C7E54D454C601F1213A97A7F79009B
:1012EF007E7F7F00AD4E120780907FB5E54EF09068
:0A12FF007FB4E030E2DD80F7D32277
:0C00360012097AE54BF0A3E54AF0D32252
:10135B00753009753164E4FF74022531F531E435DC
:10136B0030F530853182F583E0FEE5492F12098592
:07137B00EEF00FBF08E2D302
:011382002248
:0B16F700AD49AC4812155D9202A20242
:0117020022C4
:07172C00120DD39202A2028C
:011733002293
:0A1719001216DA12097AEFF0D3225B
:1011140012097AA3A3A374FFF0907F9EE054F7F41E
:10112400FF200E07C4540FFF4307F012097AA3A34C
:10113400EFF0907F9D120978A3F0907F9C120978BC
:02114400F0D3E6
:011146002286
:1011D80012097AE0F4907F9CF012097AA3E0F49067
:1011E8007F9DF012097AA3A3E0F4FF200E07C454F0
:0E11F800F0FF5307F8430708907F9EEFF0D3F7
:0112060022C5
:100B1B00AF3EE53EB408005075900B2A25E073619B
:100B2B003A61626166616C61726176617E6186D2E7
:100B3B0002D203D2047D037C00AF49AE48120D7282
:100B4B0012097AA3A3A3E4F0200E4812097AA3A3F7
:100B5B00E0C4540FF0803CD202801AD202C2038050
:100B6B000EC202D2038008C2028012D202D203C28A
:100B7B0004800EC202D203D2048006D202C203D278
:100B8B0004AD42AC41AF49AE48120D7280057F02F5
:040B9B00121723D337
:010B9F002233
:1004F800AF3E12097AE0F545A3E0F54612097AA362
:10050800A3E0FEF547EFB408004002A1FA90051BEE
:1005180025E073A12BA167A17EA193A1A8A1BEA1EB
:10052800CDA1E4200E1212097AA3A3EEC454F0F070
:10053800120981E0C454F0F0E5492404120985E069
:10054800FFE5492405120985E0FD120981E0FBD287
:1005580002D203D2041210A9E4FB7D03FCA1F1D25C
:1005680002D203D204AB47AD46AF451210A97B03B4
:10057800AD42AC41A1F1D202C203C204E4FBFDAF1B
:10058800451210A90BAD42AC41805EC202D203C233
:1005980004E4FBAD45FF1210A90BAD42AC41804904
:1005A800C202C203D204AB45E4FDFF1210A97B01CD
:1005B800AD42AC418033D202D203C204E4FBAD4663
:1005C8001206018024C202D203D204AB46AD45E430
:1005D800FF1210A97B02AD42AC41800DD202C203CA
:1005E800D204AB46E4FD120601AF49AE48120C95A1
:0805F80080057F02121723D3D6
:0D06000022AF451210A97B02AD42AC412291
:10029500C203E53DF50BE53EF509854110854211A3
:1002A50085480E85490FE50912138302C90102D15C
:1002B5000202C90402C93002DD3102E53202D14031
:1002C500000002EB1209FD750D01801A902464E50A
:1002D5003FF0A3E540F08000750C00750D02800627
:1002E5001209FD750D03E509121383030F00031CA5
:1002F50001031C02032E03031C0403403003753164
:10030500039732032740000003B9300205E4F50ADC
:100315008022750A03801DA202920B120FB9920367
:1003250061BE12000E920361BE300205750A01809E
:1003350003750A04121518920361BE12098D12097C
:10034500E6507612099B902464F0E5492531FFE5D6
:10035500483530CF2401F50FE43FF50EA202920B8C
:10036500120FB94004C20361BE74021209DC80CECB
:1003750012098D1209E6504112099B902464120955
:10038500A99024651203C14004C203802C1209DA26
:1003950080E112098D1209E6501F12099B90246510
:1003A5001209A99024661203C14004C203800A12EF
:0B03B50009DA80E17F02121723A20387
:1003C00022F0E5492531FFE5483530CF2402F50F0D
:0C03D000E43FF50EA202920B120FB922BE
:101412001209BF9400500875487F75490080111267
:1014220009BF940450087548207549008002C32200
:02143200D322C3
:101434001209BF9400400D7C207D00E4FBAF42AE56
:1014440041020BA0E54245416006907FB5E542F0BC
:011454002275
:0A0BA0008E308F318C328D338B3490
:100BAA0085304C85314DE54D454C60491213A9E518
:100BBA00346005E4F54E8028E4FFEFC3954E5020DB
:100BCA000533E533AC327002053214F5828C83E0CA
:100BDA00FE74002FF582E4347FF583EEF00F80DA9D
:100BEA00907FB5E54EF0E54D454C60BA907FB4E094
:100BFA0030E2B380F7E54EB44018E531654270043F
:100C0A00E5306541600C907FB4E020E2F9E4907F22
:020C1A00B5F033
:010C1C0022B5
:040E22008E308F314E
:100E26008C4C8D4DE54D454C603A1213A9AF4E12D0
:100E36001489400122E4FFEFC3954E502074C02F61
:100E4600F582E4347EF583E0FE0531E531AC3070A1
:100E560002053014F5828C83EEF00F80DAE4907F81
:050E6600C5F080C0D3BF
:010E6B002264
:10103A00BFE202D3221209BF94005010AF42121429
:10104A008940012275487E7549C0D3221209BF948E
:10105A000450147E207F00AD42AC41120E2250078C
:09106A0075482075490022C322DB
:10148900EF6015907FB4E020E3F9907FC5E06F60CD
:0A149900077F07121723C322D32296
:1013A900D3E54D9440E54C94004010754E4074C00F
:1013B900254DF54D74FF354CF54C22854D4EE4F520
:0413C9004CF54D2270
:09121400C196C114C19501080541
:1007C800907FA5E04440F022AB11AA10AD0FAC0E0B
:1007D80022907FA6E0851482851383F022907FA55E
:1007E800E04420F0227C247D64AB0DAA0C7F01221A
:0707F800E5161516AE1522EF
:1014A300C2E9A20D921892F9A20D92F9E4F512F590
:0814B30013F514F515F51622DE
:10130900C20C7535FFC216AF351535EF600F7C2459
:101319007D64E4FBFAFF12013F50ECD20CD2162097
:091329000C057F0B121723A20C26
:011332002298
:101518008508321207D0AF0A12013F500122AF32BC
:061528001532EF70EEC366
:01152E00229A
:100FB9008508341207ED12013F5028300B1A120729
:100FC900D07F0212013F501B30150BE50B54F0FF87
:100FD900BFA003021309D3221207D07F0312013FD6
:0B0FE900500122AF341534EF70C9C373
:010FF40022DA
:10000E00850832430B017509041207ED12013F50AA
:10001E000B1207D07F0512013F500122AF3215326D
:04002E00EF70E6C3C6
:0100320022AB
:100F3C00A2149208A2159209850833C214750805EB
:100F4C00750BA2902464ECF0A3EDF08E0E8F0F8A3B
:100F5C00108B11750C00750D02A207920B120FB9B4
:0F0F6C00920AA2089214A2099215853308A20ACC
:010F7B002253
:10013F008F368C378D388A398B3A7D147C007F024D
:10014F0012165A758E01907FA5E030E6117F0212CC
:10015F0016E950F2C20D1214A3E4F58E416BE4F5CB
:10016F008EE5126006D20D7F0E4191E53664026076
:10017F0013E5366405600D758E01907FA5E0448010
:10018F00F0E4F58ED217853915853A168537138524
:10019F003814E536604914604414605F14600B2412
:1001AF00FE601D046002413CC217E509B40404AFB0
:1001BF000B8005E50B4401FF121703751205414231
:1001CF00751206758E011207D91207F870021515F0
:1001DF0064014E70031207E5E4F58E8056C217E5F1
:1001EF0009B40404AF0B8005E50B54FEFF1217038F
:1001FF00E5164515703230172F8028E51645156026
:10020F001C0514E514AE137002051314F5828E83CA
:10021F00E0FF121703E516151670021515E51645C2
:10022F00157005751207800B7512048006D20D7FAD
:10023F0001804FD2E97D287C007F0212165AE51209
:10024F00D39403401D7F021216E950F2C20D12140F
:10025F00A3758E011207C8E4F58EC2E9D20D7F0D8A
:10026F008020E51214601114600624027010D3224E
:10027F00A216920D7F0C800AD20D7F0F8004D20D33
:06028F007F03120FF522AF
:0C170300758E01907FA6EFF0E4F58E22B9
:0B0FF500300D03121723E4F512C32295
:03004B0002060D9D
:10060D00C0E0C083C082C0D075D000C004C006C099
:10061D0007758E01907FA5E030E2057512018013FC
:10062D00907FA5E020E10CE512640660062014031E
:10063D00751202E51224FC500F601414603614601C
:10064D004A147002C1D4C1E11207C8C2E9C1E9055B
:10065D0014E514AE137002051314F5828E83E09029
:10066D007FA6F01207F87002151564014E706D75B6
:10067D001207C1E91207D97512061207F870021593
:10068D001564014E70561207E58051E5166401455B
:10069D001570051207E5800FE51645157009301721
:1006AD00031207C8751200907FA6E0FF0514E5142C
:1006BD00AC137002051314F5828C83EFF0E516155B
:1006CD00167002151580153017031207C875120024
:1006DD00C2E980081207C8751203C2E9758E00536E
:1006ED0091DFD007D006D004D0D0D082D083D0E017
:0106FD0032CA
:10117800E0FE0531E531AC302214F5828E83E0FFC4
:101188002214F5828C83EEF0220531E531AE30224F
:101198002552F552E43551F551224F524FE54FF0A3
:0111A8002224
:1010A9008F53EFF4F5548D55EDF4F556EB54F7F5F0
:1010B90057F4F558A202920FA2039210A2049211BA
:1010C900E553B4FF04D2128002C212E555B4FF03FE
:0610D900D21322C2132213
:0A0C95008E308F318C328D338B349A
:100C9F001200F18F35AF347E00EF2531F531EE358F
:100CAF0030F530C3E5339FF533E5329EF532E4F589
:100CBF0051F552C3E5529533E55195325037300F08
:100CCF000D1211917002053012118112152F301073
:100CDF000D1211917002053012118112154630114B
:100CEF000D121191700205301211811216C9E535DE
:050CFF0012119880BEF7
:010D040022CC
:080D72008E308F318C328D337D
:100D7A00A202920FA2039210A20492111200F1E4AD
:100D8A00F551F552C3E5529533E551953250393054
:100D9A000F0D907F99121178700205301211893067
:100DAA00100D907F9A121178700205301211893055
:100DBA001110907F9BE054F71211797002053012DE
:080DCA001189EF12119880BCA1
:010DD20022FE
:0E00F100E4FF300F010F3010010F3011010F2E
:0100FF0022DE
:10152F00907F96301203EFF022E0F54FE5535F42C4
:07153F004FE5541211A22236
:10154600907F97301303EFF022E0F54FE5555F42A9
:071556004FE5561211A2221D
:1016C900907F98E0F54FE5575F424FE5581211A218
:0116D90022EE
:10121D0051245311150000FFFFF7000008000000D6
:06122D0001234567C1A08A
:1016A60074422FF582E43424F583227B017D407C4D
:0216B6003F22D1
:100DD3008F308D31E5307029E53114600D146010CA
:100DE30014601024037013021234C203D204800768
:100DF300021693D203C2040210007F02121723C308
:100E030022E530C3941140057F0102172374422564
:0F0E1300301216A9E531F0FDAF30120C1DD322BD
:10155D00EFC3941140057F010217231216A6E08DEB
:06156D00828C83F0D32202
:10100000D2053003031214BB300405120E6C920596
:1010100020030330051CE4F532744225321216A970
:10102000E0FDAF32120C1D0532E532C3941140E9E8
:0910300080057F0A121723A205B6
:011039002294
:1014BB00E4FF74532FF582E43424F583E0FE121617
:0714CB00A6EEF00FBF11EBCC
:0114D20022F7
:10169300E490246CF07E247F6CD207FA1216B11208
:0216A3000F3CFA
:0116A5002222
:101234007E247F42D2077B117A007D417C3F120FCE
:101244003C501790246C74A5F07E247F6CD2077AEE
:0B125400001216B1120F3C500122C323
:01125F00226C
:100E6C00C2067E247F6CC2077B027A007D407C3FE9
:100E7C00120F3C502F90246CE064A57027A3E094D3
:100E8C001140037411F090246DE0FDD394004014D4
:100E9C007E247F43ED14FB7A00C2077D427C3F1217
:060EAC000F3C9206A206B5
:010EB200221D
:100C1D00EF14B40A005070900C2E25E0500205839D
:100C2D00738142819481518156815D8164816D8191
:100C3D007381798185ED5407F508EDA2E39214A235
:100C4D00E4921522ED13920E22EDF4907F9CF0228A
:100C5D00EDF4907F9DF022ED54F7F4907F9EF022FD
:100C6D00907F96EDF022907F97EDF022907F98E0A7
:100C7D0054085305F74DF022ED547FF518B47F035A
:070C8D00751880ED33922081
:010C9400223D
:10164500907FB27424F0A37476F0907FAFE04402EB
:05165500F0E4F51A228B
:09172300902476E004F08F1A22F4
:0E16DA00AD1AE4F51A907FAFE04408F0AF05BA
:0116E80022DF
:100071000216B8E493A3F8E493A34003F68001F2D7
:1000810008DFF48029E493A3F85407240CC8C33390
:10009100C4540F4420C8834004F456800146F6DF5F
:1000A100E4800B0102040810204080901207E47ED6
:1000B100019360BCA3FF543F30E509541FFEE49354
:1000C100A360010ECF54C025E060A840B8E493A31B
:1000D100FAE493A3F8E493A3C8C582C8CAC583CA46
:1000E100F0A3C8C582C8CAC583CADFE9DEE780BEFE
:0112330000BA
:10138300D083D082F8E4937012740193700DA3A3F9
:1013930093F8740193F5828883E47374029368600D
:0613A300EFA3A3A380DF0D
:00000001FF
